:020000040800F2
:1000000010040020C5010008410E0008DD0D0008A5
:100010003D0E0008AD0200086D0F00080000000052
:10002000000000000000000000000000450E000875
:10003000B102000800000000430E0008470E00084F
:10004000DF010008DF010008DF010008DF01000810
:10005000DF010008DF010008DF010008DF01000800
:10006000DF010008DF010008DF010008DF010008F0
:10007000DF010008DF010008DF010008DF010008E0
:10008000DF010008DF010008DF010008DF010008D0
:10009000DF010008DF010008DF010008DF010008C0
:1000A000DF010008DF010008DF010008DF010008B0
:1000B000DF010008DF010008DF010008DF010008A0
:1000C000DF010008DF010008DF010008DF01000890
:1000D000DF010008DF010008DF010008DF01000880
:1000E000DF010008DF010008DF010008DF01000870
:1000F000DF010008DF010008DF010008DF01000860
:10010000DF010008DF010008DF010008DF0100084F
:10011000DF010008DF010008DF010008DF0100083F
:10012000DF010008DF010008DF010008DF0100082F
:10013000DF010008DF010008DF010008DF0100081F
:10014000DF010008DF010008DF010008DF0100080F
:10015000DF010008DF010008DF010008DF010008FF
:10016000DF010008DF010008DF010008DF010008EF
:10017000DF010008DF010008DF01000800000000C7
:10018000DF010008DF010008DF010008DF010008CF
:10019000DF010008DF010008DF010008DF010008BF
:1001A000DF010008DF010008DF010008DFF810D0E0
:1001B00000F06AF800480047C90F0008AFF300805C
:1001C000100400200648804706480047FEE7FEE787
:1001D000FEE7FEE7FEE7FEE7FEE7FEE7FEE7FEE7F7
:1001E000090F0008AD0100082DE9F05F0546002069
:1001F00092469B4688460646814640241BE0284698
:1002000041464746224600F02FF853465A46C01A48
:10021000914110D311461846224600F016F82D1AC7
:1002200067EB01084F4622460120002100F00DF83F
:1002300017EB00094E41201EA4F10104DFDC484603
:1002400031462A464346BDE8F09F202A04DB203A87
:1002500000FA02F1002070479140C2F1200320FA19
:1002600003F3194390407047202A04DB203A21FA17
:1002700002F00021704721FA02F3D040C2F12002BF
:100280009140084319467047064C074D06E0E06868
:1002900040F0010394E8070098471034AC42F6D3CD
:1002A000FFF788FF2C1000084C10000800BFFEE785
:1002B0007047000070B5044600F01EF9064625465A
:1002C000681C10B104480078054400BF00F014F920
:1002D000801BA842FAD370BD0C000020F8B502467E
:1002E0000B460025002400200021E0E0012606FA4C
:1002F00001F51E6806EA0504AC4274D11E7906F0C9
:100300000306012E04D01E7906F00306022E13D137
:1003100090684F000326BE40B0434F00DE68BE40E9
:1003200030439060506801268E40B0431E79C6F37A
:1003300000168E40304350601E7906F00306032EEF
:1003400009D0D0684F000326BE40B0434F009E68DE
:10035000BE403043D0601E7906F00306022E13D152
:10036000CF0802F1200656F827004E07F70E0F2699
:10037000BE40B0434F07FF0E1E69BE403043CF085A
:1003800002F1200646F8270010684F000326BE4001
:10039000B0431E7906F003064F00BE4030431060A4
:1003A0005E6806F44036002E1DD000BF0026009681
:1003B000414E366846F480463F4F3E603E463668C2
:1003C00006F48046009600BF00BF3C4E8F0856F8EA
:1003D00027008E07370F0F26BE40B043384EB2427B
:1003E00002D100262EE061E0364EB24201D1012654
:1003F00028E0354EB24201D1022623E0334EB2420C
:1004000001D103261EE0324EB24201D1042619E08A
:10041000304EB24201D1052614E02F4EB24201D136
:1004200006260FE02D4EB24201D107260AE02C4EDF
:10043000B24201D1082605E02A4EB24201D1092676
:1004400000E00A268F073F0FBE4030431B4E8F0847
:1004500046F82700244E3068A0435E6806F48016F4
:1004600006B12043204E3060361D3068A0435E68E0
:1004700006F4001606B120431B4E361D30601A4E9E
:10048000361F3068A0435E6806F4003606B120438C
:10049000154E361F3060361F3068A0435E6806F484
:1004A000803606B12043104E083E3060491C1029AA
:1004B000FFF41CAFF8BD000044380240083801408A
:1004C000000002400004024000080240000C02400C
:1004D000001002400014024000180240001C0240BC
:1004E0000020024000240240083C01400AB1816122
:1004F00001E00B0483617047014800687047000009
:1005000004000020034800680349097808440149B1
:1005100008607047040000200C00002010B50D4852
:10052000006840F400700B4908600846006840F419
:10053000806008600846006840F48070086003200E
:1005400000F070F80F2000F007F800F02BF8002002
:1005500010BD0000003C024070B504460E48007813
:100560004FF47A71B1FBF0F00C490968B1FBF0F57A
:10057000284600F019FC08B1012070BD102C07D2EC
:1005800000222146501E00F00EF80548046001E0EC
:100590000120F2E70020F0E70C000020000000201E
:1005A0000800002070472DE9F05F80460D46164692
:1005B000002700F0DDFC074639462A46334601F0A5
:1005C0000700C0F1070ABAF1040F02D94FF0040A7C
:1005D00001E0C0F1070AD14600F1040ABAF1070FA1
:1005E00002D24FF0000A01E0A0F1030AD4464FF016
:1005F000010A0AFA09FAAAF1010A0AEA020A0AFA3F
:100600000CFA4FF0010B0BFA0CFBABF1010B0BEAF0
:10061000030B4AEA0B042146404600F0B1FCBDE85A
:10062000F09F000000BF00F00702064B19684FF66C
:10063000FF031940044B0B4343EA0221014B1960AD
:1006400000BF70470CED00E00000FA0538B500244B
:1006500000BF002000901D48006840F080501B49FA
:1006600008600846006800F08050009000BF00BF9E
:10067000012017490864FFF73FFF044607E0FFF732
:100680003BFF001BB0F57A7F01D9032038BD11482C
:10069000406800F48030B0F5803FF0D101200C4973
:1006A0004864FFF729FF044607E0FFF725FF001B1A
:1006B000B0F57A7F01D90320E8E70648406800F4E6
:1006C0000030B0F5003FF0D10020DFE740380240B5
:1006D00000000E420070004070B504460D460CB993
:1006E000012070BD5848006800F00F00A84209D2F0
:1006F00055490D700846006800F00F00A84201D06F
:100700000120EEE7207800F0020002281DD12078B9
:1007100000F00400042805D14C48006840F4E05083
:100720004A490860207800F00800082805D14748A9
:10073000006840F46040454908604448006820F083
:10074000F000A168084341490860207800F00100EA
:10075000A8B36068012807D13C4808380068C0F396
:100760004040B8B90120BCE76068022802D0606848
:10077000032807D1354808380068C0F3406048B9FD
:100780000120AEE7314808380068C0F3400008B9DE
:100790000120A6E72D48006820F0030061680843A7
:1007A0002A490860FFF7A8FE064609E0FFF7A4FE05
:1007B000801B41F28831884202D9032091E707E08B
:1007C0002248006800F00C006168B0EB810FEDD1A9
:1007D0001D48006800F00F00A84209D91A490D70A1
:1007E0000846006800F00F00A84201D0012078E719
:1007F000207800F00400042807D11448006820F491
:10080000E050E168084311490860207800F00800D2
:10081000082808D10D48006820F46040216940EAAA
:10082000C1000A49086000F019F808490968C1F3D5
:100830000311074A515CC840064908600648006831
:10084000FFF78AFE00204CE7003C024008380240D7
:100850001410000800000020080000202DE9F047D7
:10086000002400250026A1462548006800F00C0061
:1008700020B1042805D008283AD105E0DFF884909B
:1008800039E0DFF8849036E01D48001F006800F072
:100890003F041B48001F006800F4800078B11A482C
:1008A0001749091F0968C1F38811A0FB01700146AF
:1008B000224600233846FFF797FC05460EE0114814
:1008C0000F49091F0968C1F38811A0FB0170014697
:1008D000224600233846FFF787FC05460848001FDC
:1008E0000068C0F30140401C4600B5FBF6F902E089
:1008F000DFF8109000BF00BF4846BDE8F087000059
:10090000083802400024F40000127A00F8B50446CA
:100910000CB90120F8BD207800F00100002874D047
:10092000F948006800F00C0004280DD0F648006873
:1009300000F00C00082813D1F348001F006800F4F1
:100940008000B0F5800F0BD1EF4808380068C0F385
:100950004040002859D06068002856D10120D9E7CE
:1009600000BF6068B0F5803F08D1E74808380068EC
:1009700040F48030E449083908601EE06068B0F552
:10098000A02F0DD1E0480838006840F48020DE49EF
:10099000083908600846006840F4803008600CE0C0
:1009A000D9480838006820F48030D74908390860F1
:1009B0000846006820F48020086000BF606890B19D
:1009C000FFF79AFD054606E0FFF796FD401B6428F9
:1009D00001D903209EE7CC4808380068C0F34040A6
:1009E0000028F1D011E0FFF787FD054606E0FFF78C
:1009F00083FD401B642801D903208BE7C2480838D7
:100A00000068C0F340400028F1D1207800F00200D7
:100A100002285FD1BC48006800F00C0058B1BA4809
:100A2000006800F00C0008281CD1B748001F0068BF
:100A300000F48000B0B9B44808380068C0F3400042
:100A400020B1E068012801D0012063E7AE480838F2
:100A5000006820F0F800216940EAC100AA4908397D
:100A6000086037E0E06800B30120A8490860FFF79C
:100A700043FD054606E0FFF73FFD401B022801D974
:100A8000032047E7A04808380068C0F3400000286A
:100A9000F1D09D480838006820F0F800216940EA4C
:100AA000C10099490839086014E00020974908609E
:100AB000FFF722FD054606E0FFF71EFD401B02285A
:100AC00001D9032026E7904808380068C0F34000A9
:100AD0000028F1D1207800F0080008282CD16069A6
:100AE000A8B101208A490860FFF706FD054606E027
:100AF000FFF702FD401B022801D903200AE78248C4
:100B00006C300068C0F340000028F1D014E00020F1
:100B10007F490860FFF7F0FC054606E0FFF7ECFCB4
:100B2000401B022801D90320F4E677486C300068A6
:100B3000C0F340000028F1D1207800F00400042820
:100B400070D1002770483830006800F0805090B9AC
:100B500000BF002000906C483830006840F08050A2
:100B60006949383108600846006800F080500090FC
:100B700000BF00BF01276748006800F48070B0B96B
:100B80006448006840F4807062490860FFF7B4FC74
:100B9000054606E0FFF7B0FC401B022801D9032000
:100BA000B8E65C48006800F480700028F2D000BF0E
:100BB000A068012808D154486830006840F001005E
:100BC0005149683108601DE0A06805280DD14E48E4
:100BD0006830006840F004004B49683108600846FE
:100BE000006840F0010008600CE047486830006889
:100BF00020F001004449683108600846006820F090
:100C00000400086000BFA068A8B1FFF775FC0546A6
:100C100009E0FFF771FC401B41F28831884202D99C
:100C2000032077E626E0384868300068C0F34000CB
:100C30000028EED013E0FFF75FFC054608E0FFF761
:100C40005BFC401B41F28831884201D9032061E6F8
:100C50002D4868300068C0F340000028EFD1012F14
:100C600007D129483830006820F0805026493831B3
:100C7000086000BFA069002845D02348006800F044
:100C80000C0008285DD0A069022845D100201F492A
:100C90000866FFF731FC054606E0FFF72DFC401B18
:100CA000022801D9032035E6174808380068C0F348
:100CB00040600028F1D1D4E907010843616A40EAA5
:100CC00081110122A06AC2EB500041EA00412C20B0
:100CD000005D41EA00600C49091F086001200B49D2
:100CE0000866FFF709FC054606E0FFF705FC401B18
:100CF000022801D903200DE6034808380068C0F334
:100D000040600028F1D049E0083802400000474226
:100D1000800E474200700040002021490866FFF71E
:100D2000EBFB054606E0FFF7E7FB401B022801D975
:100D30000320EFE51B480068C0F340600028F2D1B3
:100D40002CE0A069012800D1E4E51648001D0668E2
:100D5000A069012820D006F48001E06981421BD1FE
:100D600006F03F01206A814216D147F6C07030403C
:100D7000616AB0EB811F0FD106F440310122A06AF5
:100D8000C2EB5000B1EB004F06D106F070612C2091
:100D9000005DB1EB006F01D00120BBE50020B9E59B
:100DA000000047420038024070B504462546681EE0
:100DB000B0F1807F01D301200FE0681E4FF0E021E9
:100DC00048610F214FF0FF3000F0DAF800204FF0BB
:100DD000E021886107200861002070BD00BFFEE7A8
:100DE00000B587B000BF002001901248006840F0B5
:100DF0000200104908600846006800F002000190F7
:100E000000BF00BF03200290012003900490032044
:100E1000059002A90848FFF761FA01221146064829
:100E2000FFF764FB012202210348FFF75FFB07B0D5
:100E300000BD0000303802400004024000BFFEE761
:100E400070477047704710B5FFF75CFB10BD00009E
:100E500010B592B0002400BF002000902848006820
:100E600040F08050264908600846006800F0805035
:100E7000009000BF00BF00BF002000902148006824
:100E800040F440401F4908600846006800F44040B4
:100E9000009000BF00BF01200690000407900220D0
:100EA0000C9041050D9119210E914FF4B4710F91E1
:100EB000022110910821119106A8FFF727FD044691
:100EC0000CB100BFFEE7FFF7C1FB04460CB100BF49
:100ED000FEE70F20019002200290002003904FF4C3
:100EE000A05004904FF480500590052101A8FFF711
:100EF000F3FB04460CB100BFFEE712B010BD0000CA
:100F000040380240007000401448006840F470000F
:100F1000124908601248006840F00100104908605A
:100F200000200F49083108600D4800680D4908404D
:100F30000B4908600C48091D0860081F006820F470
:100F40008020091F0860002005490C3108604FF01F
:100F500000600249803908607047000088ED00E0B9
:100F600000380240FFFFF6FE1030002400BFFEE70D
:100F700002480068C0F30220704700000CED00E05A
:100F800010B5002804DB0A07130E054A135406E0C7
:100F90000A07140E034A00F00F031B1FD45410BDA0
:100FA00000E400E018ED00E002E008C8121F08C1EC
:100FB000002AFAD170477047002001E001C1121FDA
:100FC000002AFBD170470000FFF7A8FAFFF740FFA7
:100FD000FFF706FF1BE0002202210D48FFF786FA0B
:100FE000012211460A48FFF781FA42F21070FFF71A
:100FF00061F9012202210648FFF778FA0022012157
:101000000348FFF773FA42F21070FFF753F9E2E773
:101010000004024000000000000000000102030480
:101020000607080900000000010203044C10000834
:101030000000002010000000A80F00085C1000084D
:101040001000002000040000B80F00080024F40085
:0C10500000000000100000000100000083
:04000005080001AD41
:00000001FF
